{
  "contractName": "SolnSquareVerifier",
  "abi": [
    {
      "anonymous": false,
      "inputs": [
        {
          "indexed": true,
          "internalType": "address",
          "name": "owner",
          "type": "address"
        },
        {
          "indexed": true,
          "internalType": "address",
          "name": "approved",
          "type": "address"
        },
        {
          "indexed": true,
          "internalType": "uint256",
          "name": "tokenId",
          "type": "uint256"
        }
      ],
      "name": "Approval",
      "type": "event"
    },
    {
      "anonymous": false,
      "inputs": [
        {
          "indexed": true,
          "internalType": "address",
          "name": "owner",
          "type": "address"
        },
        {
          "indexed": true,
          "internalType": "address",
          "name": "operator",
          "type": "address"
        },
        {
          "indexed": false,
          "internalType": "bool",
          "name": "approved",
          "type": "bool"
        }
      ],
      "name": "ApprovalForAll",
      "type": "event"
    },
    {
      "anonymous": false,
      "inputs": [
        {
          "indexed": false,
          "internalType": "address",
          "name": "addr",
          "type": "address"
        }
      ],
      "name": "OwnershipTransferred",
      "type": "event"
    },
    {
      "anonymous": false,
      "inputs": [
        {
          "indexed": false,
          "internalType": "address",
          "name": "addr",
          "type": "address"
        },
        {
          "indexed": false,
          "internalType": "uint256",
          "name": "amount",
          "type": "uint256"
        }
      ],
      "name": "Paused",
      "type": "event"
    },
    {
      "anonymous": false,
      "inputs": [
        {
          "indexed": false,
          "internalType": "address",
          "name": "to",
          "type": "address"
        },
        {
          "indexed": false,
          "internalType": "uint256[2]",
          "name": "a",
          "type": "uint256[2]"
        },
        {
          "indexed": false,
          "internalType": "uint256[2][2]",
          "name": "b",
          "type": "uint256[2][2]"
        },
        {
          "indexed": false,
          "internalType": "uint256[2]",
          "name": "c",
          "type": "uint256[2]"
        },
        {
          "indexed": false,
          "internalType": "uint256[2]",
          "name": "input",
          "type": "uint256[2]"
        }
      ],
      "name": "SolutionAdded",
      "type": "event"
    },
    {
      "anonymous": false,
      "inputs": [
        {
          "indexed": true,
          "internalType": "address",
          "name": "from",
          "type": "address"
        },
        {
          "indexed": true,
          "internalType": "address",
          "name": "to",
          "type": "address"
        },
        {
          "indexed": true,
          "internalType": "uint256",
          "name": "tokenId",
          "type": "uint256"
        }
      ],
      "name": "Transfer",
      "type": "event"
    },
    {
      "anonymous": false,
      "inputs": [
        {
          "indexed": false,
          "internalType": "address",
          "name": "addr",
          "type": "address"
        },
        {
          "indexed": false,
          "internalType": "uint256",
          "name": "amount",
          "type": "uint256"
        }
      ],
      "name": "Unpaused",
      "type": "event"
    },
    {
      "constant": false,
      "inputs": [
        {
          "internalType": "bytes32",
          "name": "_myid",
          "type": "bytes32"
        },
        {
          "internalType": "string",
          "name": "_result",
          "type": "string"
        }
      ],
      "name": "__callback",
      "outputs": [],
      "payable": false,
      "stateMutability": "nonpayable",
      "type": "function"
    },
    {
      "constant": false,
      "inputs": [
        {
          "internalType": "bytes32",
          "name": "_myid",
          "type": "bytes32"
        },
        {
          "internalType": "string",
          "name": "_result",
          "type": "string"
        },
        {
          "internalType": "bytes",
          "name": "_proof",
          "type": "bytes"
        }
      ],
      "name": "__callback",
      "outputs": [],
      "payable": false,
      "stateMutability": "nonpayable",
      "type": "function"
    },
    {
      "constant": false,
      "inputs": [
        {
          "internalType": "address",
          "name": "to",
          "type": "address"
        },
        {
          "internalType": "uint256",
          "name": "tokenId",
          "type": "uint256"
        }
      ],
      "name": "approve",
      "outputs": [],
      "payable": false,
      "stateMutability": "nonpayable",
      "type": "function"
    },
    {
      "constant": true,
      "inputs": [
        {
          "internalType": "address",
          "name": "owner",
          "type": "address"
        }
      ],
      "name": "balanceOf",
      "outputs": [
        {
          "internalType": "uint256",
          "name": "",
          "type": "uint256"
        }
      ],
      "payable": false,
      "stateMutability": "view",
      "type": "function"
    },
    {
      "constant": true,
      "inputs": [],
      "name": "baseTokenURI",
      "outputs": [
        {
          "internalType": "string",
          "name": "",
          "type": "string"
        }
      ],
      "payable": false,
      "stateMutability": "view",
      "type": "function"
    },
    {
      "constant": true,
      "inputs": [
        {
          "internalType": "uint256",
          "name": "tokenId",
          "type": "uint256"
        }
      ],
      "name": "getApproved",
      "outputs": [
        {
          "internalType": "address",
          "name": "",
          "type": "address"
        }
      ],
      "payable": false,
      "stateMutability": "view",
      "type": "function"
    },
    {
      "constant": true,
      "inputs": [],
      "name": "getOwner",
      "outputs": [
        {
          "internalType": "address",
          "name": "",
          "type": "address"
        }
      ],
      "payable": false,
      "stateMutability": "view",
      "type": "function"
    },
    {
      "constant": true,
      "inputs": [
        {
          "internalType": "address",
          "name": "owner",
          "type": "address"
        },
        {
          "internalType": "address",
          "name": "operator",
          "type": "address"
        }
      ],
      "name": "isApprovedForAll",
      "outputs": [
        {
          "internalType": "bool",
          "name": "",
          "type": "bool"
        }
      ],
      "payable": false,
      "stateMutability": "view",
      "type": "function"
    },
    {
      "constant": false,
      "inputs": [
        {
          "internalType": "address",
          "name": "to",
          "type": "address"
        },
        {
          "internalType": "uint256",
          "name": "tokenId",
          "type": "uint256"
        }
      ],
      "name": "mint",
      "outputs": [
        {
          "internalType": "bool",
          "name": "",
          "type": "bool"
        }
      ],
      "payable": false,
      "stateMutability": "nonpayable",
      "type": "function"
    },
    {
      "constant": true,
      "inputs": [],
      "name": "name",
      "outputs": [
        {
          "internalType": "string",
          "name": "",
          "type": "string"
        }
      ],
      "payable": false,
      "stateMutability": "view",
      "type": "function"
    },
    {
      "constant": true,
      "inputs": [
        {
          "internalType": "uint256",
          "name": "tokenId",
          "type": "uint256"
        }
      ],
      "name": "ownerOf",
      "outputs": [
        {
          "internalType": "address",
          "name": "",
          "type": "address"
        }
      ],
      "payable": false,
      "stateMutability": "view",
      "type": "function"
    },
    {
      "constant": false,
      "inputs": [
        {
          "internalType": "address",
          "name": "from",
          "type": "address"
        },
        {
          "internalType": "address",
          "name": "to",
          "type": "address"
        },
        {
          "internalType": "uint256",
          "name": "tokenId",
          "type": "uint256"
        }
      ],
      "name": "safeTransferFrom",
      "outputs": [],
      "payable": false,
      "stateMutability": "nonpayable",
      "type": "function"
    },
    {
      "constant": false,
      "inputs": [
        {
          "internalType": "address",
          "name": "from",
          "type": "address"
        },
        {
          "internalType": "address",
          "name": "to",
          "type": "address"
        },
        {
          "internalType": "uint256",
          "name": "tokenId",
          "type": "uint256"
        },
        {
          "internalType": "bytes",
          "name": "_data",
          "type": "bytes"
        }
      ],
      "name": "safeTransferFrom",
      "outputs": [],
      "payable": false,
      "stateMutability": "nonpayable",
      "type": "function"
    },
    {
      "constant": false,
      "inputs": [
        {
          "internalType": "address",
          "name": "to",
          "type": "address"
        },
        {
          "internalType": "bool",
          "name": "approved",
          "type": "bool"
        }
      ],
      "name": "setApprovalForAll",
      "outputs": [],
      "payable": false,
      "stateMutability": "nonpayable",
      "type": "function"
    },
    {
      "constant": false,
      "inputs": [
        {
          "internalType": "bool",
          "name": "isPaused",
          "type": "bool"
        }
      ],
      "name": "setPaused",
      "outputs": [],
      "payable": false,
      "stateMutability": "nonpayable",
      "type": "function"
    },
    {
      "constant": true,
      "inputs": [
        {
          "internalType": "bytes4",
          "name": "interfaceId",
          "type": "bytes4"
        }
      ],
      "name": "supportsInterface",
      "outputs": [
        {
          "internalType": "bool",
          "name": "",
          "type": "bool"
        }
      ],
      "payable": false,
      "stateMutability": "view",
      "type": "function"
    },
    {
      "constant": true,
      "inputs": [],
      "name": "symbol",
      "outputs": [
        {
          "internalType": "string",
          "name": "",
          "type": "string"
        }
      ],
      "payable": false,
      "stateMutability": "view",
      "type": "function"
    },
    {
      "constant": true,
      "inputs": [
        {
          "internalType": "uint256",
          "name": "index",
          "type": "uint256"
        }
      ],
      "name": "tokenByIndex",
      "outputs": [
        {
          "internalType": "uint256",
          "name": "",
          "type": "uint256"
        }
      ],
      "payable": false,
      "stateMutability": "view",
      "type": "function"
    },
    {
      "constant": true,
      "inputs": [
        {
          "internalType": "address",
          "name": "owner",
          "type": "address"
        },
        {
          "internalType": "uint256",
          "name": "index",
          "type": "uint256"
        }
      ],
      "name": "tokenOfOwnerByIndex",
      "outputs": [
        {
          "internalType": "uint256",
          "name": "",
          "type": "uint256"
        }
      ],
      "payable": false,
      "stateMutability": "view",
      "type": "function"
    },
    {
      "constant": true,
      "inputs": [
        {
          "internalType": "uint256",
          "name": "tokenId",
          "type": "uint256"
        }
      ],
      "name": "tokenURI",
      "outputs": [
        {
          "internalType": "string",
          "name": "",
          "type": "string"
        }
      ],
      "payable": false,
      "stateMutability": "view",
      "type": "function"
    },
    {
      "constant": true,
      "inputs": [],
      "name": "totalSupply",
      "outputs": [
        {
          "internalType": "uint256",
          "name": "",
          "type": "uint256"
        }
      ],
      "payable": false,
      "stateMutability": "view",
      "type": "function"
    },
    {
      "constant": false,
      "inputs": [
        {
          "internalType": "address",
          "name": "from",
          "type": "address"
        },
        {
          "internalType": "address",
          "name": "to",
          "type": "address"
        },
        {
          "internalType": "uint256",
          "name": "tokenId",
          "type": "uint256"
        }
      ],
      "name": "transferFrom",
      "outputs": [],
      "payable": false,
      "stateMutability": "nonpayable",
      "type": "function"
    },
    {
      "constant": false,
      "inputs": [
        {
          "internalType": "address",
          "name": "newOwner",
          "type": "address"
        }
      ],
      "name": "transferOwnership",
      "outputs": [],
      "payable": false,
      "stateMutability": "nonpayable",
      "type": "function"
    },
    {
      "constant": true,
      "inputs": [
        {
          "internalType": "uint256[2]",
          "name": "a",
          "type": "uint256[2]"
        },
        {
          "internalType": "uint256[2][2]",
          "name": "b",
          "type": "uint256[2][2]"
        },
        {
          "internalType": "uint256[2]",
          "name": "c",
          "type": "uint256[2]"
        },
        {
          "internalType": "uint256[2]",
          "name": "input",
          "type": "uint256[2]"
        }
      ],
      "name": "verifyTx",
      "outputs": [
        {
          "internalType": "bool",
          "name": "r",
          "type": "bool"
        }
      ],
      "payable": false,
      "stateMutability": "view",
      "type": "function"
    },
    {
      "constant": true,
      "inputs": [
        {
          "internalType": "bytes32",
          "name": "key",
          "type": "bytes32"
        }
      ],
      "name": "CheckIfSolutionExists",
      "outputs": [
        {
          "internalType": "bool",
          "name": "",
          "type": "bool"
        }
      ],
      "payable": false,
      "stateMutability": "view",
      "type": "function"
    },
    {
      "constant": true,
      "inputs": [
        {
          "internalType": "address",
          "name": "to",
          "type": "address"
        },
        {
          "internalType": "uint256[2]",
          "name": "a",
          "type": "uint256[2]"
        },
        {
          "internalType": "uint256[2][2]",
          "name": "b",
          "type": "uint256[2][2]"
        },
        {
          "internalType": "uint256[2]",
          "name": "c",
          "type": "uint256[2]"
        },
        {
          "internalType": "uint256[2]",
          "name": "input",
          "type": "uint256[2]"
        }
      ],
      "name": "buildKey",
      "outputs": [
        {
          "internalType": "bytes32",
          "name": "",
          "type": "bytes32"
        }
      ],
      "payable": false,
      "stateMutability": "pure",
      "type": "function"
    },
    {
      "constant": false,
      "inputs": [
        {
          "internalType": "address",
          "name": "to",
          "type": "address"
        },
        {
          "internalType": "uint256[2]",
          "name": "a",
          "type": "uint256[2]"
        },
        {
          "internalType": "uint256[2][2]",
          "name": "b",
          "type": "uint256[2][2]"
        },
        {
          "internalType": "uint256[2]",
          "name": "c",
          "type": "uint256[2]"
        },
        {
          "internalType": "uint256[2]",
          "name": "input",
          "type": "uint256[2]"
        }
      ],
      "name": "addSolution",
      "outputs": [],
      "payable": false,
      "stateMutability": "nonpayable",
      "type": "function"
    },
    {
      "constant": false,
      "inputs": [
        {
          "internalType": "address",
          "name": "to",
          "type": "address"
        },
        {
          "internalType": "uint256",
          "name": "tokenId",
          "type": "uint256"
        },
        {
          "internalType": "uint256[2]",
          "name": "a",
          "type": "uint256[2]"
        },
        {
          "internalType": "uint256[2][2]",
          "name": "b",
          "type": "uint256[2][2]"
        },
        {
          "internalType": "uint256[2]",
          "name": "c",
          "type": "uint256[2]"
        },
        {
          "internalType": "uint256[2]",
          "name": "input",
          "type": "uint256[2]"
        }
      ],
      "name": "mintNFT",
      "outputs": [],
      "payable": false,
      "stateMutability": "nonpayable",
      "type": "function"
    }
  ],
  "bytecode": "0x60806040526040518060400160405280601f81526020017f4f70656e536561204e6f6e2d46756e6769626c652050726f70657274696573008152506040518060400160405280600581526020017f4f534e46500000000000000000000000000000000000000000000000000000008152506040518060600160405280603f815260200162004dfd603f9139336000806101000a81548173ffffffffffffffffffffffffffffffffffffffff021916908373ffffffffffffffffffffffffffffffffffffffff1602179055507f04dba622d284ed0014ee4b9a6a68386be1a4c08a4913ae272de89199cc68616333604051808273ffffffffffffffffffffffffffffffffffffffff1673ffffffffffffffffffffffffffffffffffffffff16815260200191505060405180910390a160008060146101000a81548160ff0219169083151502179055506200015f6301ffc9a760e01b620001fb60201b60201c565b620001776380ac58cd60e01b620001fb60201b60201c565b6200018f63780e9d6360e01b620001fb60201b60201c565b82600f9080519060200190620001a79291906200029b565b508160109080519060200190620001c09291906200029b565b508060119080519060200190620001d99291906200029b565b50620001f2635b5e139f60e01b620001fb60201b60201c565b5050506200034a565b63ffffffff60e01b817bffffffffffffffffffffffffffffffffffffffffffffffffffffffff191614156200022f57600080fd5b6001806000837bffffffffffffffffffffffffffffffffffffffffffffffffffffffff19167bffffffffffffffffffffffffffffffffffffffffffffffffffffffff1916815260200190815260200160002060006101000a81548160ff02191690831515021790555050565b828054600181600116156101000203166002900490600052602060002090601f016020900481019282601f10620002de57805160ff19168380011785556200030f565b828001600101855582156200030f579182015b828111156200030e578251825591602001919060010190620002f1565b5b5090506200031e919062000322565b5090565b6200034791905b808211156200034357600081600090555060010162000329565b5090565b90565b614aa3806200035a6000396000f3fe608060405234801561001057600080fd5b50600436106101c45760003560e01c8063621e9ec0116100f9578063c22fc39811610097578063d7ed94e111610071578063d7ed94e11461106d578063e985e9c5146110b3578063ea95deaf1461112f578063f2fde38b146112b0576101c4565b8063c22fc39814610dae578063c87b56dd14610f43578063d547cfb714610fea576101c4565b8063893d20e8116100d3578063893d20e814610b8c57806395d89b4114610bd6578063a22cb46514610c59578063b88d4fde14610ca9576101c4565b8063621e9ec01461094d5780636352211e14610ac657806370a0823114610b34576101c4565b806327dc297e1161016657806340c10f191161014057806340c10f19146106ac57806342842e0e146107125780634f6ccce7146107805780635507dddc146107c2576101c4565b806327dc297e146104295780632f745c59146104ee57806338bbfa5014610550576101c4565b8063095ea7b3116101a2578063095ea7b31461031f57806316c38b3c1461036d57806318160ddd1461039d57806323b872dd146103bb576101c4565b806301ffc9a7146101c957806306fdde031461022e578063081812fc146102b1575b600080fd5b610214600480360360208110156101df57600080fd5b8101908080357bffffffffffffffffffffffffffffffffffffffffffffffffffffffff191690602001909291905050506112f4565b604051808215151515815260200191505060405180910390f35b61023661135c565b6040518080602001828103825283818151815260200191508051906020019080838360005b8381101561027657808201518184015260208101905061025b565b50505050905090810190601f1680156102a35780820380516001836020036101000a031916815260200191505b509250505060405180910390f35b6102dd600480360360208110156102c757600080fd5b81019080803590602001909291905050506113fe565b604051808273ffffffffffffffffffffffffffffffffffffffff1673ffffffffffffffffffffffffffffffffffffffff16815260200191505060405180910390f35b61036b6004803603604081101561033557600080fd5b81019080803573ffffffffffffffffffffffffffffffffffffffff169060200190929190803590602001909291905050506114b6565b005b61039b6004803603602081101561038357600080fd5b81019080803515159060200190929190505050611713565b005b6103a56117f2565b6040518082815260200191505060405180910390f35b610427600480360360608110156103d157600080fd5b81019080803573ffffffffffffffffffffffffffffffffffffffff169060200190929190803573ffffffffffffffffffffffffffffffffffffffff169060200190929190803590602001909291905050506117ff565b005b6104ec6004803603604081101561043f57600080fd5b81019080803590602001909291908035906020019064010000000081111561046657600080fd5b82018360208201111561047857600080fd5b8035906020019184600183028401116401000000008311171561049a57600080fd5b91908080601f016020809104026020016040519081016040528093929190818152602001838380828437600081840152601f19601f82011690508083019250505050505050919291929050505061188b565b005b61053a6004803603604081101561050457600080fd5b81019080803573ffffffffffffffffffffffffffffffffffffffff169060200190929190803590602001909291905050506118ce565b6040518082815260200191505060405180910390f35b6106aa6004803603606081101561056657600080fd5b81019080803590602001909291908035906020019064010000000081111561058d57600080fd5b82018360208201111561059f57600080fd5b803590602001918460018302840111640100000000831117156105c157600080fd5b91908080601f016020809104026020016040519081016040528093929190818152602001838380828437600081840152601f19601f8201169050808301925050505050505091929192908035906020019064010000000081111561062457600080fd5b82018360208201111561063657600080fd5b8035906020019184600183028401116401000000008311171561065857600080fd5b91908080601f016020809104026020016040519081016040528093929190818152602001838380828437600081840152601f19601f820116905080830192505050505050509192919290505050611941565b005b6106f8600480360360408110156106c257600080fd5b81019080803573ffffffffffffffffffffffffffffffffffffffff16906020019092919080359060200190929190505050611964565b604051808215151515815260200191505060405180910390f35b61077e6004803603606081101561072857600080fd5b81019080803573ffffffffffffffffffffffffffffffffffffffff169060200190929190803573ffffffffffffffffffffffffffffffffffffffff16906020019092919080359060200190929190505050611a45565b005b6107ac6004803603602081101561079657600080fd5b8101908080359060200190929190505050611a65565b6040518082815260200191505060405180910390f35b61094b60048036036101808110156107d957600080fd5b81019080803573ffffffffffffffffffffffffffffffffffffffff1690602001909291908035906020019092919080604001906002806020026040519081016040528092919082600260200280828437600081840152601f19601f82011690508083019250505050505091929192908060800190600280602002604051908101604052809291906000905b828210156108b8578382604002016002806020026040519081016040528092919082600260200280828437600081840152601f19601f82011690508083019250505050505081526020019060010190610864565b50505050919291929080604001906002806020026040519081016040528092919082600260200280828437600081840152601f19601f820116905080830192505050505050919291929080604001906002806020026040519081016040528092919082600260200280828437600081840152601f19601f8201169050808301925050505050509192919290505050611a99565b005b610aac600480360361014081101561096457600080fd5b8101908080604001906002806020026040519081016040528092919082600260200280828437600081840152601f19601f82011690508083019250505050505091929192908060800190600280602002604051908101604052809291906000905b82821015610a19578382604002016002806020026040519081016040528092919082600260200280828437600081840152601f19601f820116905080830192505050505050815260200190600101906109c5565b50505050919291929080604001906002806020026040519081016040528092919082600260200280828437600081840152601f19601f820116905080830192505050505050919291929080604001906002806020026040519081016040528092919082600260200280828437600081840152601f19601f8201169050808301925050505050509192919290505050611ab9565b604051808215151515815260200191505060405180910390f35b610af260048036036020811015610adc57600080fd5b8101908080359060200190929190505050611cb5565b604051808273ffffffffffffffffffffffffffffffffffffffff1673ffffffffffffffffffffffffffffffffffffffff16815260200191505060405180910390f35b610b7660048036036020811015610b4a57600080fd5b81019080803573ffffffffffffffffffffffffffffffffffffffff169060200190929190505050611cf2565b6040518082815260200191505060405180910390f35b610b94611d42565b604051808273ffffffffffffffffffffffffffffffffffffffff1673ffffffffffffffffffffffffffffffffffffffff16815260200191505060405180910390f35b610bde611d6b565b6040518080602001828103825283818151815260200191508051906020019080838360005b83811015610c1e578082015181840152602081019050610c03565b50505050905090810190601f168015610c4b5780820380516001836020036101000a031916815260200191505b509250505060405180910390f35b610ca760048036036040811015610c6f57600080fd5b81019080803573ffffffffffffffffffffffffffffffffffffffff169060200190929190803515159060200190929190505050611e0d565b005b610dac60048036036080811015610cbf57600080fd5b81019080803573ffffffffffffffffffffffffffffffffffffffff169060200190929190803573ffffffffffffffffffffffffffffffffffffffff1690602001909291908035906020019092919080359060200190640100000000811115610d2657600080fd5b820183602082011115610d3857600080fd5b80359060200191846001830284011164010000000083111715610d5a57600080fd5b91908080601f016020809104026020016040519081016040528093929190818152602001838380828437600081840152601f19601f820116905080830192505050505050509192919290505050611f47565b005b610f2d6004803603610160811015610dc557600080fd5b81019080803573ffffffffffffffffffffffffffffffffffffffff16906020019092919080604001906002806020026040519081016040528092919082600260200280828437600081840152601f19601f82011690508083019250505050505091929192908060800190600280602002604051908101604052809291906000905b82821015610e9a578382604002016002806020026040519081016040528092919082600260200280828437600081840152601f19601f82011690508083019250505050505081526020019060010190610e46565b50505050919291929080604001906002806020026040519081016040528092919082600260200280828437600081840152601f19601f820116905080830192505050505050919291929080604001906002806020026040519081016040528092919082600260200280828437600081840152601f19601f8201169050808301925050505050509192919290505050611f6d565b6040518082815260200191505060405180910390f35b610f6f60048036036020811015610f5957600080fd5b81019080803590602001909291905050506120b3565b6040518080602001828103825283818151815260200191508051906020019080838360005b83811015610faf578082015181840152602081019050610f94565b50505050905090810190601f168015610fdc5780820380516001836020036101000a031916815260200191505b509250505060405180910390f35b610ff261217a565b6040518080602001828103825283818151815260200191508051906020019080838360005b83811015611032578082015181840152602081019050611017565b50505050905090810190601f16801561105f5780820380516001836020036101000a031916815260200191505b509250505060405180910390f35b6110996004803603602081101561108357600080fd5b810190808035906020019092919050505061221c565b604051808215151515815260200191505060405180910390f35b611115600480360360408110156110c957600080fd5b81019080803573ffffffffffffffffffffffffffffffffffffffff169060200190929190803573ffffffffffffffffffffffffffffffffffffffff169060200190929190505050612246565b604051808215151515815260200191505060405180910390f35b6112ae600480360361016081101561114657600080fd5b81019080803573ffffffffffffffffffffffffffffffffffffffff16906020019092919080604001906002806020026040519081016040528092919082600260200280828437600081840152601f19601f82011690508083019250505050505091929192908060800190600280602002604051908101604052809291906000905b8282101561121b578382604002016002806020026040519081016040528092919082600260200280828437600081840152601f19601f820116905080830192505050505050815260200190600101906111c7565b50505050919291929080604001906002806020026040519081016040528092919082600260200280828437600081840152601f19601f820116905080830192505050505050919291929080604001906002806020026040519081016040528092919082600260200280828437600081840152601f19601f82011690508083019250505050505091929192905050506122da565b005b6112f2600480360360208110156112c657600080fd5b81019080803573ffffffffffffffffffffffffffffffffffffffff1690602001909291905050506126ca565b005b600060016000837bffffffffffffffffffffffffffffffffffffffffffffffffffffffff19167bffffffffffffffffffffffffffffffffffffffffffffffffffffffff1916815260200190815260200160002060009054906101000a900460ff169050919050565b6060600f8054600181600116156101000203166002900480601f0160208091040260200160405190810160405280929190818152602001828054600181600116156101000203166002900480156113f45780601f106113c9576101008083540402835291602001916113f4565b820191906000526020600020905b8154815290600101906020018083116113d757829003601f168201915b5050505050905090565b6000611409826128d3565b61147b576040517f08c379a000000000000000000000000000000000000000000000000000000000815260040180806020018281038252601e8152602001807f417070726f76616c20666f72206e6f6e6578697374656e7420746f6b656e000081525060200191505060405180910390fd5b6003600083815260200190815260200160002060009054906101000a900473ffffffffffffffffffffffffffffffffffffffff169050919050565b8173ffffffffffffffffffffffffffffffffffffffff166002600083815260200190815260200160002060009054906101000a900473ffffffffffffffffffffffffffffffffffffffff1673ffffffffffffffffffffffffffffffffffffffff16141561156e576040517f08c379a000000000000000000000000000000000000000000000000000000000815260040180806020018281038252602a815260200180614a45602a913960400191505060405180910390fd5b3373ffffffffffffffffffffffffffffffffffffffff1661158d611d42565b73ffffffffffffffffffffffffffffffffffffffff1614806115bd57506115bc336115b783611cb5565b612246565b5b61162f576040517f08c379a00000000000000000000000000000000000000000000000000000000081526004018080602001828103825260188152602001807f43616c6c6572206973206e6f7420617574686f7269736564000000000000000081525060200191505060405180910390fd5b816003600083815260200190815260200160002060006101000a81548173ffffffffffffffffffffffffffffffffffffffff021916908373ffffffffffffffffffffffffffffffffffffffff160217905550808273ffffffffffffffffffffffffffffffffffffffff166002600084815260200190815260200160002060009054906101000a900473ffffffffffffffffffffffffffffffffffffffff1673ffffffffffffffffffffffffffffffffffffffff167f8c5be1e5ebec7d5bd14f71427d1e84f3dd0314c0f7b2291e5b200ac8c7c3b92560405160405180910390a45050565b6000809054906101000a900473ffffffffffffffffffffffffffffffffffffffff1673ffffffffffffffffffffffffffffffffffffffff163373ffffffffffffffffffffffffffffffffffffffff16146117d5576040517f08c379a00000000000000000000000000000000000000000000000000000000081526004018080602001828103825260198152602001807f4f6e6c7920746865206f776e657220697320616c6c6f7765640000000000000081525060200191505060405180910390fd5b80600060146101000a81548160ff02191690831515021790555050565b6000600880549050905090565b6118093382612945565b61187b576040517f08c379a000000000000000000000000000000000000000000000000000000000815260040180806020018281038252601f8152602001807f53656e646572206973206e6f7420617070726f766564206f72206f776e65720081525060200191505060405180910390fd5b6118868383836129da565b505050565b6118ca828260006040519080825280601f01601f1916602001820160405280156118c45781602001600182028038833980820191505090505b50611941565b5050565b60006118d983611cf2565b82106118e457600080fd5b600660008473ffffffffffffffffffffffffffffffffffffffff1673ffffffffffffffffffffffffffffffffffffffff168152602001908152602001600020828154811061192e57fe5b9060005260206000200154905092915050565b6000801b600d60008060001b815260200190815260200160002081905550505050565b60008060009054906101000a900473ffffffffffffffffffffffffffffffffffffffff1673ffffffffffffffffffffffffffffffffffffffff163373ffffffffffffffffffffffffffffffffffffffff1614611a28576040517f08c379a00000000000000000000000000000000000000000000000000000000081526004018080602001828103825260198152602001807f4f6e6c7920746865206f776e657220697320616c6c6f7765640000000000000081525060200191505060405180910390fd5b611a3283836129fe565b611a3b82612a1f565b6001905092915050565b611a6083838360405180602001604052806000815250611f47565b505050565b6000611a6f6117f2565b8210611a7a57600080fd5b60088281548110611a8757fe5b90600052602060002001549050919050565b611aa686858585856122da565b611ab08686611964565b50505050505050565b6000611ac36146c3565b604051806040016040528087600060028110611adb57fe5b6020020151815260200187600160028110611af257fe5b602002015181525081600001819052506040518060400160405280604051806040016040528088600060028110611b2557fe5b6020020151600060028110611b3657fe5b6020020151815260200188600060028110611b4d57fe5b6020020151600160028110611b5e57fe5b60200201518152508152602001604051806040016040528088600160028110611b8357fe5b6020020151600060028110611b9457fe5b6020020151815260200188600160028110611bab57fe5b6020020151600160028110611bbc57fe5b60200201518152508152508160200181905250604051806040016040528085600060028110611be757fe5b6020020151815260200185600160028110611bfe57fe5b6020020151815250816040018190525060606002604051908082528060200260200182016040528015611c405781602001602082028038833980820191505090505b50905060008090505b6002811015611c8857848160028110611c5e57fe5b6020020151828281518110611c6f57fe5b6020026020010181815250508080600101915050611c49565b506000611c958284612b70565b1415611ca657600192505050611cad565b6000925050505b949350505050565b60006002600083815260200190815260200160002060009054906101000a900473ffffffffffffffffffffffffffffffffffffffff169050919050565b6000611d3b600460008473ffffffffffffffffffffffffffffffffffffffff1673ffffffffffffffffffffffffffffffffffffffff168152602001908152602001600020612ce2565b9050919050565b60008060009054906101000a900473ffffffffffffffffffffffffffffffffffffffff16905090565b606060108054600181600116156101000203166002900480601f016020809104026020016040519081016040528092919081815260200182805460018160011615610100020316600290048015611e035780601f10611dd857610100808354040283529160200191611e03565b820191906000526020600020905b815481529060010190602001808311611de657829003601f168201915b5050505050905090565b3373ffffffffffffffffffffffffffffffffffffffff168273ffffffffffffffffffffffffffffffffffffffff161415611e4657600080fd5b80600560003373ffffffffffffffffffffffffffffffffffffffff1673ffffffffffffffffffffffffffffffffffffffff16815260200190815260200160002060008473ffffffffffffffffffffffffffffffffffffffff1673ffffffffffffffffffffffffffffffffffffffff16815260200190815260200160002060006101000a81548160ff0219169083151502179055508173ffffffffffffffffffffffffffffffffffffffff163373ffffffffffffffffffffffffffffffffffffffff167f17307eab39ab6107e8899845ad3d59bd9653f200f220920489ca2b5937696c3183604051808215151515815260200191505060405180910390a35050565b611f528484846117ff565b611f5e84848484612cf0565b611f6757600080fd5b50505050565b60008585858585604051602001808673ffffffffffffffffffffffffffffffffffffffff1673ffffffffffffffffffffffffffffffffffffffff1660601b815260140185600260200280838360005b83811015611fd7578082015181840152602081019050611fbc565b505050509050018460026000925b8184101561202b5782846020020151600260200280838360005b8381101561201a578082015181840152602081019050611fff565b505050509050019260010192611fe5565b9250505083600260200280838360005b8381101561205657808201518184015260208101905061203b565b5050505090500182600260200280838360005b83811015612084578082015181840152602081019050612069565b505050509050019550505050505060405160208183030381529060405280519060200120905095945050505050565b60606120be826128d3565b6120c757600080fd5b601260008381526020019081526020016000208054600181600116156101000203166002900480601f01602080910402602001604051908101604052809291908181526020018280546001816001161561010002031660029004801561216e5780601f106121435761010080835404028352916020019161216e565b820191906000526020600020905b81548152906001019060200180831161215157829003601f168201915b50505050509050919050565b606060118054600181600116156101000203166002900480601f0160208091040260200160405190810160405280929190818152602001828054600181600116156101000203166002900480156122125780601f106121e757610100808354040283529160200191612212565b820191906000526020600020905b8154815290600101906020018083116121f557829003601f168201915b5050505050905090565b60006014600083815260200190815260200160002060009054906101000a900460ff169050919050565b6000600560008473ffffffffffffffffffffffffffffffffffffffff1673ffffffffffffffffffffffffffffffffffffffff16815260200190815260200160002060008373ffffffffffffffffffffffffffffffffffffffff1673ffffffffffffffffffffffffffffffffffffffff16815260200190815260200160002060009054906101000a900460ff16905092915050565b6122e26146f6565b85816000019073ffffffffffffffffffffffffffffffffffffffff16908173ffffffffffffffffffffffffffffffffffffffff1681525050848160200181905250838160400181905250828160600181905250818160800181905250600061236182600001518360200151846040015185606001518660800151611f6d565b9050600015156123708261221c565b1515146123e5576040517f08c379a00000000000000000000000000000000000000000000000000000000081526004018080602001828103825260178152602001807f536f6c7574696f6e20616c72656164792065786973747300000000000000000081525060200191505060405180910390fd5b6123f186868686611ab9565b612463576040517f08c379a000000000000000000000000000000000000000000000000000000000815260040180806020018281038252601e8152602001807f536f6c7574696f6e20636f756c64206e6f74206265207665726966696564000081525060200191505060405180910390fd5b6013829080600181540180825580915050906001820390600052602060002090600b02016000909192909190915060008201518160000160006101000a81548173ffffffffffffffffffffffffffffffffffffffff021916908373ffffffffffffffffffffffffffffffffffffffff1602179055506020820151816001019060026124ef929190614753565b50604082015181600301906002612507929190614793565b5060608201518160070190600261251f929190614753565b50608082015181600901906002612537929190614753565b5050505060016014600083815260200190815260200160002060006101000a81548160ff0219169083151502179055507fd9268e00e826a845b7c55571479b034a800794e0c239b0d000c4805f15010c1882600001518360200151846040015185606001518660800151604051808673ffffffffffffffffffffffffffffffffffffffff1673ffffffffffffffffffffffffffffffffffffffff16815260200185600260200280838360005b838110156125fe5780820151818401526020810190506125e3565b505050509050018460026000925b818410156126525782846020020151600260200280838360005b83811015612641578082015181840152602081019050612626565b50505050905001926001019261260c565b9250505083600260200280838360005b8381101561267d578082015181840152602081019050612662565b5050505090500182600260200280838360005b838110156126ab578082015181840152602081019050612690565b505050509050019550505050505060405180910390a150505050505050565b6000809054906101000a900473ffffffffffffffffffffffffffffffffffffffff1673ffffffffffffffffffffffffffffffffffffffff163373ffffffffffffffffffffffffffffffffffffffff161461278c576040517f08c379a00000000000000000000000000000000000000000000000000000000081526004018080602001828103825260198152602001807f4f6e6c7920746865206f776e657220697320616c6c6f7765640000000000000081525060200191505060405180910390fd5b8073ffffffffffffffffffffffffffffffffffffffff168173ffffffffffffffffffffffffffffffffffffffff161461282d576040517f08c379a000000000000000000000000000000000000000000000000000000000815260040180806020018281038252600f8152602001807f496e76616c69642061646472657373000000000000000000000000000000000081525060200191505060405180910390fd5b806000806101000a81548173ffffffffffffffffffffffffffffffffffffffff021916908373ffffffffffffffffffffffffffffffffffffffff1602179055507f04dba622d284ed0014ee4b9a6a68386be1a4c08a4913ae272de89199cc68616381604051808273ffffffffffffffffffffffffffffffffffffffff1673ffffffffffffffffffffffffffffffffffffffff16815260200191505060405180910390a150565b6000806002600084815260200190815260200160002060009054906101000a900473ffffffffffffffffffffffffffffffffffffffff169050600073ffffffffffffffffffffffffffffffffffffffff168173ffffffffffffffffffffffffffffffffffffffff161415915050919050565b60008061295183611cb5565b90508073ffffffffffffffffffffffffffffffffffffffff168473ffffffffffffffffffffffffffffffffffffffff1614806129c057508373ffffffffffffffffffffffffffffffffffffffff166129a8846113fe565b73ffffffffffffffffffffffffffffffffffffffff16145b806129d157506129d08185612246565b5b91505092915050565b6129e5838383612ed9565b6129ef8382613199565b6129f98282613337565b505050565b612a0882826133fe565b612a128282613337565b612a1b81613616565b5050565b612a28816128d3565b612a9a576040517f08c379a00000000000000000000000000000000000000000000000000000000081526004018080602001828103825260148152602001807f546f6b656e20646f6573206e6f7420657869737400000000000000000000000081525060200191505060405180910390fd5b612b4660118054600181600116156101000203166002900480601f016020809104026020016040519081016040528092919081815260200182805460018160011615610100020316600290048015612b335780601f10612b0857610100808354040283529160200191612b33565b820191906000526020600020905b815481529060010190602001808311612b1657829003601f168201915b5050505050612b4183613662565b61378f565b601260008381526020019081526020016000209080519060200190612b6c9291906147e3565b5050565b6000807f30644e72e131a029b85045b68181585d2833e84879b9709143e1f593f00000019050612b9e614863565b612ba66137d3565b9050806080015151600186510114612bbd57600080fd5b612bc56148aa565b6040518060400160405280600081526020016000815250905060008090505b8651811015612c5b5783878281518110612bfa57fe5b602002602001015110612c0c57600080fd5b612c4c82612c4785608001516001850181518110612c2657fe5b60200260200101518a8581518110612c3a57fe5b6020026020010151613c21565b613cb3565b91508080600101915050612be4565b50612c7e818360800151600081518110612c7157fe5b6020026020010151613cb3565b9050612cc485600001518660200151612c9684613d64565b8560400151612ca88a60400151613d64565b8760600151612cba8960000151613d64565b8960200151613dfe565b612cd45760019350505050612cdc565b600093505050505b92915050565b600081600001549050919050565b6000612d118473ffffffffffffffffffffffffffffffffffffffff16613f62565b612d1e5760019050612ed1565b60008473ffffffffffffffffffffffffffffffffffffffff1663150b7a02338887876040518563ffffffff1660e01b8152600401808573ffffffffffffffffffffffffffffffffffffffff1673ffffffffffffffffffffffffffffffffffffffff1681526020018473ffffffffffffffffffffffffffffffffffffffff1673ffffffffffffffffffffffffffffffffffffffff16815260200183815260200180602001828103825283818151815260200191508051906020019080838360005b83811015612df9578082015181840152602081019050612dde565b50505050905090810190601f168015612e265780820380516001836020036101000a031916815260200191505b5095505050505050602060405180830381600087803b158015612e4857600080fd5b505af1158015612e5c573d6000803e3d6000fd5b505050506040513d6020811015612e7257600080fd5b8101908080519060200190929190505050905063150b7a0260e01b7bffffffffffffffffffffffffffffffffffffffffffffffffffffffff1916817bffffffffffffffffffffffffffffffffffffffffffffffffffffffff1916149150505b949350505050565b6002600082815260200190815260200160002060009054906101000a900473ffffffffffffffffffffffffffffffffffffffff1673ffffffffffffffffffffffffffffffffffffffff168373ffffffffffffffffffffffffffffffffffffffff1614612fad576040517f08c379a000000000000000000000000000000000000000000000000000000000815260040180806020018281038252601b8152602001807f496e76616c6964206f776e6572206f66207468697320746f6b656e000000000081525060200191505060405180910390fd5b600073ffffffffffffffffffffffffffffffffffffffff168273ffffffffffffffffffffffffffffffffffffffff161415613050576040517f08c379a00000000000000000000000000000000000000000000000000000000081526004018080602001828103825260148152602001807f496e76616c6964207a65726f206164647265737300000000000000000000000081525060200191505060405180910390fd5b61305981613fad565b6130a0600460008573ffffffffffffffffffffffffffffffffffffffff1673ffffffffffffffffffffffffffffffffffffffff16815260200190815260200160002061406b565b6130e7600460008473ffffffffffffffffffffffffffffffffffffffff1673ffffffffffffffffffffffffffffffffffffffff16815260200190815260200160002061408e565b816002600083815260200190815260200160002060006101000a81548173ffffffffffffffffffffffffffffffffffffffff021916908373ffffffffffffffffffffffffffffffffffffffff160217905550808273ffffffffffffffffffffffffffffffffffffffff168473ffffffffffffffffffffffffffffffffffffffff167fddf252ad1be2c89b69c2b068fc378daa952ba7f163c4a11628f55a4df523b3ef60405160405180910390a4505050565b60006131f16001600660008673ffffffffffffffffffffffffffffffffffffffff1673ffffffffffffffffffffffffffffffffffffffff168152602001908152602001600020805490506140a490919063ffffffff16565b90506000600760008481526020019081526020016000205490508181146132de576000600660008673ffffffffffffffffffffffffffffffffffffffff1673ffffffffffffffffffffffffffffffffffffffff168152602001908152602001600020838154811061325e57fe5b9060005260206000200154905080600660008773ffffffffffffffffffffffffffffffffffffffff1673ffffffffffffffffffffffffffffffffffffffff16815260200190815260200160002083815481106132b657fe5b9060005260206000200181905550816007600083815260200190815260200160002081905550505b600660008573ffffffffffffffffffffffffffffffffffffffff1673ffffffffffffffffffffffffffffffffffffffff16815260200190815260200160002080548091906001900361333091906148c4565b5050505050565b600660008373ffffffffffffffffffffffffffffffffffffffff1673ffffffffffffffffffffffffffffffffffffffff168152602001908152602001600020805490506007600083815260200190815260200160002081905550600660008373ffffffffffffffffffffffffffffffffffffffff1673ffffffffffffffffffffffffffffffffffffffff1681526020019081526020016000208190806001815401808255809150509060018203906000526020600020016000909192909190915055505050565b613407816128d3565b1561347a576040517f08c379a00000000000000000000000000000000000000000000000000000000081526004018080602001828103825260148152602001807f546f6b656e20616c72656164792065786973747300000000000000000000000081525060200191505060405180910390fd5b600073ffffffffffffffffffffffffffffffffffffffff168273ffffffffffffffffffffffffffffffffffffffff16141561351d576040517f08c379a00000000000000000000000000000000000000000000000000000000081526004018080602001828103825260168152602001807f546865206164647265737320697320696e76616c69640000000000000000000081525060200191505060405180910390fd5b816002600083815260200190815260200160002060006101000a81548173ffffffffffffffffffffffffffffffffffffffff021916908373ffffffffffffffffffffffffffffffffffffffff1602179055506135b6600460008473ffffffffffffffffffffffffffffffffffffffff1673ffffffffffffffffffffffffffffffffffffffff16815260200190815260200160002061408e565b808273ffffffffffffffffffffffffffffffffffffffff16600073ffffffffffffffffffffffffffffffffffffffff167fddf252ad1be2c89b69c2b068fc378daa952ba7f163c4a11628f55a4df523b3ef60405160405180910390a45050565b6008805490506009600083815260200190815260200160002081905550600881908060018154018082558091505090600182039060005260206000200160009091929091909150555050565b606060008214156136aa576040518060400160405280600181526020017f3000000000000000000000000000000000000000000000000000000000000000815250905061378a565b600082905060005b600082146136d4578080600101915050600a82816136cc57fe5b0491506136b2565b6060816040519080825280601f01601f1916602001820160405280156137095781602001600182028038833980820191505090505b50905060006001830390505b6000861461378257600a868161372757fe5b0660300160f81b8282806001900393508151811061374157fe5b60200101907effffffffffffffffffffffffffffffffffffffffffffffffffffffffffffff1916908160001a905350600a868161377a57fe5b049550613715565b819450505050505b919050565b60606137cb83836040518060200160405280600081525060405180602001604052806000815250604051806020016040528060008152506140ee565b905092915050565b6137db614863565b60405180604001604052807f1933602917cb600014f8a82672a833343a488c7403c77eee23137c0dd7e649c681526020017f1da3185f76aec3df9d70b9e825a0dd00f216d4740168b903e475a8a8bcdca57d8152508160000181905250604051806040016040528060405180604001604052807f0d22b8c2c6f943c56a9713f01c06aa3f645c4d4ccb53fdc14c94a8c051327ed481526020017f250974d4de32da66ac41b834ad24ecd7283c87aeeadfd27cc00fa32bb74a3b97815250815260200160405180604001604052807f01e02442ffae2f2be8478d549701049ac92c2a624ef0fa502bdda6251bb2daa881526020017f1128a52bee035dd03d4cc06414e7709079a090bb362a00ec5e78069d48d32d9b8152508152508160200181905250604051806040016040528060405180604001604052807f15133333dde400131f4a9e04299d633c09a8b064ba5d89d1bc1ad2ee29821a0c81526020017f0d40ca51f6fdbd924f5635a6e92077a19acb74004c13a5c31c86d097bdd3ec8e815250815260200160405180604001604052807f10f360b2535ad7aa4806da1728022c5d125faa9b504790afacb2f1dce36dc34881526020017f0f2e42fd06a0478f9ccea7607a5aaedd8435e7d9ebc88cf1d68bcd0669364d958152508152508160400181905250604051806040016040528060405180604001604052807f1eba2a288d46579533a367b1ab78a66cf74e748e97acd801e90f2ab65b3cf6e181526020017f1868eaa120e3cbe7b5ee8b8ccc55d9de05bc31674130f4a21a7e8f6b29141da2815250815260200160405180604001604052807f15e7898a8273d1e3857701594412eb8b66077844e11552ce0292a688f9c3461881526020017f1108bb0b6d7ef61b25891275cbb2a6b9b512d0fbd76c7d415128fe1443e21f7b81525081525081606001819052506003604051908082528060200260200182016040528015613ac257816020015b613aaf6148f0565b815260200190600190039081613aa75790505b50816080018190525060405180604001604052807f1cc0b32ddbe6c2f50917d6e56aac2338d6a09dc0daa9b3822bf2aa66c2f8a97d81526020017f14e574195dd8d34cfa8ce9cfd7d38f1f914770eeff238c4c2b37831c777c173e8152508160800151600081518110613b3157fe5b602002602001018190525060405180604001604052807f2b30e3d4dacd1c4612642e5830705d0736b5a3889217d43e0b3fcb264264f89581526020017f0b0a79b01be24aac55a60ce34669ee23df8944778be97e85020f4a9fac9635d98152508160800151600181518110613ba257fe5b602002602001018190525060405180604001604052807f06be5d464d79db8f163a859f838989caa47f6b8e864d0f3a4f785180729d6a3381526020017f24c1d094d0a765bc62cefcea9e83f4a253ec667cce4df37cf947c7e92d7db0a38152508160800151600281518110613c1357fe5b602002602001018190525090565b613c296148aa565b613c3161490a565b836000015181600060038110613c4357fe5b602002018181525050836020015181600160038110613c5e57fe5b6020020181815250508281600260038110613c7557fe5b602002018181525050600060608360808460076107d05a03fa90508060008114613c9e57613ca0565bfe5b5080613cab57600080fd5b505092915050565b613cbb6148aa565b613cc361492c565b836000015181600060048110613cd557fe5b602002018181525050836020015181600160048110613cf057fe5b602002018181525050826000015181600260048110613d0b57fe5b602002018181525050826020015181600360048110613d2657fe5b602002018181525050600060608360c08460066107d05a03fa90508060008114613d4f57613d51565bfe5b5080613d5c57600080fd5b505092915050565b613d6c6148aa565b60007f30644e72e131a029b85045b68181585d97816a916871ca8d3c208c16d87cfd47905060008360000151148015613da9575060008360200151145b15613dcd576040518060400160405280600081526020016000815250915050613df9565b60405180604001604052808460000151815260200182856020015181613def57fe5b0683038152509150505b919050565b600060606004604051908082528060200260200182016040528015613e3d57816020015b613e2a6148f0565b815260200190600190039081613e225790505b50905060606004604051908082528060200260200182016040528015613e7d57816020015b613e6a61494e565b815260200190600190039081613e625790505b5090508a82600081518110613e8e57fe5b60200260200101819052508882600181518110613ea757fe5b60200260200101819052508682600281518110613ec057fe5b60200260200101819052508482600381518110613ed957fe5b60200260200101819052508981600081518110613ef257fe5b60200260200101819052508781600181518110613f0b57fe5b60200260200101819052508581600281518110613f2457fe5b60200260200101819052508381600381518110613f3d57fe5b6020026020010181905250613f5282826143b0565b9250505098975050505050505050565b60008060007fc5d2460186f7233c927e7db2dcc703c0e500b653ca82273b7bfad8045d85a47060001b9050833f9150808214158015613fa457506000801b8214155b92505050919050565b600073ffffffffffffffffffffffffffffffffffffffff166003600083815260200190815260200160002060009054906101000a900473ffffffffffffffffffffffffffffffffffffffff1673ffffffffffffffffffffffffffffffffffffffff16146140685760006003600083815260200190815260200160002060006101000a81548173ffffffffffffffffffffffffffffffffffffffff021916908373ffffffffffffffffffffffffffffffffffffffff1602179055505b50565b614083600182600001546140a490919063ffffffff16565b816000018190555050565b6001816000016000828254019250508190555050565b60006140e683836040518060400160405280601e81526020017f536166654d6174683a207375627472616374696f6e206f766572666c6f770000815250614603565b905092915050565b6060808690506060869050606086905060608690506060869050606081518351855187518951010101016040519080825280601f01601f19166020018201604052801561414a5781602001600182028038833980820191505090505b509050606081905060008090506000809050600090505b88518110156141cf5788818151811061417657fe5b602001015160f81c60f81b83838060010194508151811061419357fe5b60200101907effffffffffffffffffffffffffffffffffffffffffffffffffffffffffffff1916908160001a9053508080600101915050614161565b600090505b8751811015614242578781815181106141e957fe5b602001015160f81c60f81b83838060010194508151811061420657fe5b60200101907effffffffffffffffffffffffffffffffffffffffffffffffffffffffffffff1916908160001a90535080806001019150506141d4565b600090505b86518110156142b55786818151811061425c57fe5b602001015160f81c60f81b83838060010194508151811061427957fe5b60200101907effffffffffffffffffffffffffffffffffffffffffffffffffffffffffffff1916908160001a9053508080600101915050614247565b600090505b8551811015614328578581815181106142cf57fe5b602001015160f81c60f81b8383806001019450815181106142ec57fe5b60200101907effffffffffffffffffffffffffffffffffffffffffffffffffffffffffffff1916908160001a90535080806001019150506142ba565b600090505b845181101561439b5784818151811061434257fe5b602001015160f81c60f81b83838060010194508151811061435f57fe5b60200101907effffffffffffffffffffffffffffffffffffffffffffffffffffffffffffff1916908160001a905350808060010191505061432d565b82995050505050505050505095945050505050565b600081518351146143c057600080fd5b60008351905060006006820290506060816040519080825280602002602001820160405280156143ff5781602001602082028038833980820191505090505b50905060008090505b838110156145a55786818151811061441c57fe5b60200260200101516000015182600060068402018151811061443a57fe5b60200260200101818152505086818151811061445257fe5b60200260200101516020015182600160068402018151811061447057fe5b60200260200101818152505085818151811061448857fe5b6020026020010151600001516001600281106144a057fe5b60200201518260026006840201815181106144b757fe5b6020026020010181815250508581815181106144cf57fe5b6020026020010151600001516000600281106144e757fe5b60200201518260036006840201815181106144fe57fe5b60200260200101818152505085818151811061451657fe5b60200260200101516020015160016002811061452e57fe5b602002015182600460068402018151811061454557fe5b60200260200101818152505085818151811061455d57fe5b60200260200101516020015160006002811061457557fe5b602002015182600560068402018151811061458c57fe5b6020026020010181815250508080600101915050614408565b506145ae614974565b6000602082602086026020860160086107d05a03fa905080600081146145d3576145d5565bfe5b50806145e057600080fd5b6000826000600181106145ef57fe5b602002015114159550505050505092915050565b60008383111582906146b0576040517f08c379a00000000000000000000000000000000000000000000000000000000081526004018080602001828103825283818151815260200191508051906020019080838360005b8381101561467557808201518184015260208101905061465a565b50505050905090810190601f1680156146a25780820380516001836020036101000a031916815260200191505b509250505060405180910390fd5b5060008385039050809150509392505050565b60405180606001604052806146d66148f0565b81526020016146e361494e565b81526020016146f06148f0565b81525090565b6040518060a00160405280600073ffffffffffffffffffffffffffffffffffffffff168152602001614726614996565b81526020016147336149b8565b8152602001614740614996565b815260200161474d614996565b81525090565b8260028101928215614782579160200282015b82811115614781578251825591602001919060010190614766565b5b50905061478f91906149e5565b5090565b826002800281019282156147d2579160200282015b828111156147d1578251829060026147c1929190614753565b50916020019190600201906147a8565b5b5090506147df9190614a0a565b5090565b828054600181600116156101000203166002900490600052602060002090601f016020900481019282601f1061482457805160ff1916838001178555614852565b82800160010185558215614852579182015b82811115614851578251825591602001919060010190614836565b5b50905061485f91906149e5565b5090565b6040518060a001604052806148766148f0565b815260200161488361494e565b815260200161489061494e565b815260200161489d61494e565b8152602001606081525090565b604051806040016040528060008152602001600081525090565b8154818355818111156148eb578183600052602060002091820191016148ea91906149e5565b5b505050565b604051806040016040528060008152602001600081525090565b6040518060600160405280600390602082028038833980820191505090505090565b6040518060800160405280600490602082028038833980820191505090505090565b6040518060400160405280614961614996565b815260200161496e614996565b81525090565b6040518060200160405280600190602082028038833980820191505090505090565b6040518060400160405280600290602082028038833980820191505090505090565b60405180604001604052806002905b6149cf614996565b8152602001906001900390816149c75790505090565b614a0791905b80821115614a035760008160009055506001016149eb565b5090565b90565b614a3391905b80821115614a2f5760008181614a269190614a36565b50600201614a10565b5090565b90565b50600081556001016000905556fe4164647265737320697320616c726561647920746865206f776e6572206f66207468697320746f6b656ea265627a7a72315820c9c4bae41beb8a6834a096d34c84f5b033c2c608db04fe9d5a2b826dea89a52064736f6c6343000511003268747470733a2f2f73332d75732d776573742d322e616d617a6f6e6177732e636f6d2f756461636974792d626c6f636b636861696e2f63617073746f6e652f",
  "source": "pragma solidity ^0.5.16;\n\nimport \"./ERC721Mintable.sol\";\nimport \"./verifier.sol\";\n\ncontract SolnSquareVerifier is NonFungiblePropertyERC721Token, Verifier {\n    struct Solution {\n        address to;\n        uint256[2] a;\n        uint256[2][2] b;\n        uint256[2] c;\n        uint256[2] input;\n    }\n\n    Solution[] solutions;\n    mapping(bytes32 => bool) uniqueSolutions;\n\n    event SolutionAdded(\n        address to,\n        uint256[2] a,\n        uint256[2][2] b,\n        uint256[2] c,\n        uint256[2] input\n    );\n\n    function CheckIfSolutionExists(bytes32 key) public view returns (bool) {\n        return uniqueSolutions[key];\n    }\n\n    function buildKey(\n        address to,\n        uint256[2] memory a,\n        uint256[2][2] memory b,\n        uint256[2] memory c,\n        uint256[2] memory input\n    ) public pure returns (bytes32) {\n        return keccak256(abi.encodePacked(to, a, b, c, input));\n    }\n\n    function addSolution(\n        address to,\n        uint256[2] memory a,\n        uint256[2][2] memory b,\n        uint256[2] memory c,\n        uint256[2] memory input\n    ) public {\n        Solution memory newSolution;\n        newSolution.to = to;\n        newSolution.a = a;\n        newSolution.b = b;\n        newSolution.c = c;\n        newSolution.input = input;\n        bytes32 newSolutionKey =\n            buildKey(\n                newSolution.to,\n                newSolution.a,\n                newSolution.b,\n                newSolution.c,\n                newSolution.input\n            );\n        require(\n            CheckIfSolutionExists(newSolutionKey) == false,\n            \"Solution already exists\"\n        );\n        require(\n            super.verifyTx(a, b, c, input),\n            \"Solution could not be verified\"\n        );\n        // Add solution to make sure this solution cant be used in the future\n        solutions.push(newSolution);\n        uniqueSolutions[newSolutionKey] = true;\n        emit SolutionAdded(\n            newSolution.to,\n            newSolution.a,\n            newSolution.b,\n            newSolution.c,\n            newSolution.input\n        );\n    }\n\n    function mintNFT(\n        address to,\n        uint256 tokenId,\n        uint256[2] memory a,\n        uint256[2][2] memory b,\n        uint256[2] memory c,\n        uint256[2] memory input\n    ) public {\n        addSolution(to, a, b, c, input);\n        super.mint(to, tokenId);\n    }\n}\n\n",
  "sourcePath": "/Users/Gehad/Projects/Quantactic Platform/X-RESOURCES/Blockchain Deveoper/ND1309-Blockchain-Capstone/eth-contracts/contracts/SolnSquareVerifier.sol",
  "compiler": {
    "name": "solc",
    "version": "0.5.17+commit.d19bba13.Emscripten.clang"
  },
  "schemaVersion": "3.3.3",
  "updatedAt": "2021-03-31T07:58:33.978Z",
  "devdoc": {
    "methods": {
      "__callback(bytes32,string)": {
        "details": "The following `__callback` functions are just placeholders ideally     meant to be defined in child contract when proofs are used.     The function bodies simply silence compiler warnings."
      },
      "isApprovedForAll(address,address)": {
        "details": "Tells whether an operator is approved by a given owner",
        "params": {
          "operator": "operator address which you want to query the approval of",
          "owner": "owner address which you want to query the approval of"
        },
        "return": "bool whether the given operator is approved by the given owner"
      },
      "setApprovalForAll(address,bool)": {
        "details": "Sets or unsets the approval of a given operator An operator is allowed to transfer all tokens of the sender on their behalf",
        "params": {
          "approved": "representing the status of the approval to be set",
          "to": "operator address to set the approval"
        }
      },
      "supportsInterface(bytes4)": {
        "details": "implement supportsInterface(bytes4) using a lookup table"
      },
      "tokenByIndex(uint256)": {
        "details": "Gets the token ID at a given index of all the tokens in this contract Reverts if the index is greater or equal to the total number of tokens",
        "params": {
          "index": "uint256 representing the index to be accessed of the tokens list"
        },
        "return": "uint256 token ID at the given index of the tokens list"
      },
      "tokenOfOwnerByIndex(address,uint256)": {
        "details": "Gets the token ID at a given index of the tokens list of the requested owner",
        "params": {
          "index": "uint256 representing the index to be accessed of the requested tokens list",
          "owner": "address owning the tokens list to be accessed"
        },
        "return": "uint256 token ID at the given index of the tokens list owned by the requested address"
      },
      "totalSupply()": {
        "details": "Gets the total amount of tokens stored by the contract",
        "return": "uint256 representing the total amount of tokens"
      }
    }
  },
  "userdoc": {
    "methods": {}
  }
}